{
  "contractName": "smartPiggyBank",
  "abi": [
    {
      "anonymous": false,
      "inputs": [
        {
          "indexed": false,
          "internalType": "address payable",
          "name": "newAddress",
          "type": "address"
        }
      ],
      "name": "addresschanged",
      "type": "event"
    },
    {
      "anonymous": false,
      "inputs": [
        {
          "indexed": false,
          "internalType": "uint256",
          "name": "id",
          "type": "uint256"
        }
      ],
      "name": "bankCreated",
      "type": "event"
    },
    {
      "anonymous": false,
      "inputs": [
        {
          "indexed": false,
          "internalType": "uint256",
          "name": "contribution",
          "type": "uint256"
        }
      ],
      "name": "contributionMade",
      "type": "event"
    },
    {
      "anonymous": false,
      "inputs": [
        {
          "indexed": false,
          "internalType": "uint256",
          "name": "id",
          "type": "uint256"
        },
        {
          "indexed": false,
          "internalType": "uint256",
          "name": "moneyspent",
          "type": "uint256"
        }
      ],
      "name": "moneySpent",
      "type": "event"
    },
    {
      "anonymous": false,
      "inputs": [
        {
          "indexed": false,
          "internalType": "uint256",
          "name": "withdrawnMoney",
          "type": "uint256"
        }
      ],
      "name": "moneyWithdrawn",
      "type": "event"
    },
    {
      "constant": true,
      "inputs": [
        {
          "internalType": "uint256",
          "name": "",
          "type": "uint256"
        }
      ],
      "name": "Ids",
      "outputs": [
        {
          "internalType": "uint256",
          "name": "goalID",
          "type": "uint256"
        },
        {
          "internalType": "uint256",
          "name": "currentBalance",
          "type": "uint256"
        },
        {
          "internalType": "uint256",
          "name": "goal",
          "type": "uint256"
        },
        {
          "internalType": "address payable",
          "name": "goalOwner",
          "type": "address"
        },
        {
          "internalType": "address payable",
          "name": "goalDestination",
          "type": "address"
        }
      ],
      "payable": false,
      "stateMutability": "view",
      "type": "function"
    },
    {
      "constant": true,
      "inputs": [
        {
          "internalType": "uint256",
          "name": "",
          "type": "uint256"
        }
      ],
      "name": "contributors",
      "outputs": [
        {
          "internalType": "uint256",
          "name": "goalId",
          "type": "uint256"
        },
        {
          "internalType": "uint256",
          "name": "contributionTowardsGoal",
          "type": "uint256"
        },
        {
          "internalType": "address",
          "name": "contributorAddress",
          "type": "address"
        },
        {
          "internalType": "bool",
          "name": "agreesToAddress",
          "type": "bool"
        },
        {
          "internalType": "bool",
          "name": "etherNotUsedAddressChange",
          "type": "bool"
        }
      ],
      "payable": false,
      "stateMutability": "view",
      "type": "function"
    },
    {
      "constant": true,
      "inputs": [
        {
          "internalType": "uint256",
          "name": "",
          "type": "uint256"
        }
      ],
      "name": "goalMet",
      "outputs": [
        {
          "internalType": "bool",
          "name": "",
          "type": "bool"
        }
      ],
      "payable": false,
      "stateMutability": "view",
      "type": "function"
    },
    {
      "constant": true,
      "inputs": [
        {
          "internalType": "uint256",
          "name": "",
          "type": "uint256"
        }
      ],
      "name": "goalOwner",
      "outputs": [
        {
          "internalType": "address",
          "name": "",
          "type": "address"
        }
      ],
      "payable": false,
      "stateMutability": "view",
      "type": "function"
    },
    {
      "constant": true,
      "inputs": [],
      "name": "getIds",
      "outputs": [
        {
          "internalType": "uint256",
          "name": "",
          "type": "uint256"
        }
      ],
      "payable": false,
      "stateMutability": "view",
      "type": "function"
    },
    {
      "constant": true,
      "inputs": [],
      "name": "getcontributors",
      "outputs": [
        {
          "internalType": "uint256",
          "name": "",
          "type": "uint256"
        }
      ],
      "payable": false,
      "stateMutability": "view",
      "type": "function"
    },
    {
      "constant": false,
      "inputs": [
        {
          "internalType": "uint256",
          "name": "_goal",
          "type": "uint256"
        },
        {
          "internalType": "address payable",
          "name": "_goalAddress",
          "type": "address"
        }
      ],
      "name": "createbank",
      "outputs": [],
      "payable": false,
      "stateMutability": "nonpayable",
      "type": "function"
    },
    {
      "constant": false,
      "inputs": [
        {
          "internalType": "uint256",
          "name": "_goalID",
          "type": "uint256"
        }
      ],
      "name": "contribute",
      "outputs": [],
      "payable": true,
      "stateMutability": "payable",
      "type": "function"
    },
    {
      "constant": false,
      "inputs": [
        {
          "internalType": "uint256",
          "name": "_goalID",
          "type": "uint256"
        }
      ],
      "name": "withdraw",
      "outputs": [],
      "payable": false,
      "stateMutability": "nonpayable",
      "type": "function"
    },
    {
      "constant": false,
      "inputs": [
        {
          "internalType": "uint256",
          "name": "_goalID",
          "type": "uint256"
        }
      ],
      "name": "usePiggyBank",
      "outputs": [],
      "payable": false,
      "stateMutability": "nonpayable",
      "type": "function"
    },
    {
      "constant": false,
      "inputs": [
        {
          "internalType": "uint256",
          "name": "_goalID",
          "type": "uint256"
        },
        {
          "internalType": "address payable",
          "name": "_address",
          "type": "address"
        }
      ],
      "name": "changeAddress",
      "outputs": [],
      "payable": false,
      "stateMutability": "nonpayable",
      "type": "function"
    },
    {
      "constant": false,
      "inputs": [
        {
          "internalType": "uint256",
          "name": "_goalID",
          "type": "uint256"
        }
      ],
      "name": "contributorAgreesToAddressChange",
      "outputs": [],
      "payable": false,
      "stateMutability": "nonpayable",
      "type": "function"
    }
  ],
  "bytecode": "0x608060405234801561001057600080fd5b5061260d806100206000396000f3fe6080604052600436106100a75760003560e01c80638409413011610064578063840941301461029a5780639cf99f9f1461035d578063a7665dae146103b8578063c1cbbca7146103e3578063d40b5f3214610411578063eccd01811461044c576100a7565b80631c16b8ce146100ac5780631d5ad18b146100e75780632b105663146101425780632e1a7d4d1461016d5780633cb5d100146101a85780634acdef4514610247575b600080fd5b3480156100b857600080fd5b506100e5600480360360208110156100cf57600080fd5b81019080803590602001909291905050506104c7565b005b3480156100f357600080fd5b506101406004803603604081101561010a57600080fd5b8101908080359060200190929190803573ffffffffffffffffffffffffffffffffffffffff169060200190929190505050610b2d565b005b34801561014e57600080fd5b50610157610fd4565b6040518082815260200191505060405180910390f35b34801561017957600080fd5b506101a66004803603602081101561019057600080fd5b8101908080359060200190929190505050610fe0565b005b3480156101b457600080fd5b506101e1600480360360208110156101cb57600080fd5b8101908080359060200190929190505050611526565b604051808681526020018581526020018473ffffffffffffffffffffffffffffffffffffffff1673ffffffffffffffffffffffffffffffffffffffff16815260200183151515158152602001821515151581526020019550505050505060405180910390f35b34801561025357600080fd5b506102806004803603602081101561026a57600080fd5b81019080803590602001909291905050506115a3565b604051808215151515815260200191505060405180910390f35b3480156102a657600080fd5b506102d3600480360360208110156102bd57600080fd5b81019080803590602001909291905050506115c3565b604051808681526020018581526020018481526020018373ffffffffffffffffffffffffffffffffffffffff1673ffffffffffffffffffffffffffffffffffffffff1681526020018273ffffffffffffffffffffffffffffffffffffffff1673ffffffffffffffffffffffffffffffffffffffff1681526020019550505050505060405180910390f35b34801561036957600080fd5b506103b66004803603604081101561038057600080fd5b8101908080359060200190929190803573ffffffffffffffffffffffffffffffffffffffff169060200190929190505050611646565b005b3480156103c457600080fd5b506103cd61183c565b6040518082815260200191505060405180910390f35b61040f600480360360208110156103f957600080fd5b8101908080359060200190929190505050611849565b005b34801561041d57600080fd5b5061044a6004803603602081101561043457600080fd5b8101908080359060200190929190505050611ff9565b005b34801561045857600080fd5b506104856004803603602081101561046f57600080fd5b81019080803590602001909291905050506123d2565b604051808273ffffffffffffffffffffffffffffffffffffffff1673ffffffffffffffffffffffffffffffffffffffff16815260200191505060405180910390f35b600115156002600083815260200190815260200160002060009054906101000a900460ff16151514610561576040517f08c379a00000000000000000000000000000000000000000000000000000000081526004018080602001828103825260178152602001807f596f757220676f616c20494420697320696e76616c696400000000000000000081525060200191505060405180910390fd5b600115156003600083815260200190815260200160002060009054906101000a900460ff16151514156105df576040517f08c379a00000000000000000000000000000000000000000000000000000000081526004018080602001828103825260418152602001806124926041913960600191505060405180910390fd5b600080600090505b600080549050811015610b28576000818154811061060157fe5b906000526020600020906005020160000154831415610b1b5760008090505b600180549050811015610b19576001818154811061063a57fe5b906000526020600020906003020160000154841480156106c357503373ffffffffffffffffffffffffffffffffffffffff166001828154811061067957fe5b906000526020600020906003020160020160009054906101000a900473ffffffffffffffffffffffffffffffffffffffff1673ffffffffffffffffffffffffffffffffffffffff16145b156109f8576000600182815481106106d757fe5b9060005260206000209060030201600101541161073f576040517f08c379a000000000000000000000000000000000000000000000000000000000815260040180806020018281038252602e8152602001806124fd602e913960400191505060405180910390fd5b600015156001828154811061075057fe5b906000526020600020906003020160020160149054906101000a900460ff161515146107c7576040517f08c379a000000000000000000000000000000000000000000000000000000000815260040180806020018281038252602d8152602001806125ac602d913960400191505060405180910390fd5b3392506000809050600083815481106107dc57fe5b906000526020600020906005020160020154600183815481106107fb57fe5b9060005260206000209060030201600101546000858154811061081a57fe5b906000526020600020906005020160010154011061099457600080848154811061084057fe5b9060005260206000209060050201600201546001848154811061085f57fe5b9060005260206000209060030201600101546000868154811061087e57fe5b906000526020600020906005020160010154010390503373ffffffffffffffffffffffffffffffffffffffff166108fc829081150290604051600060405180830381858888f193505050501580156108da573d6000803e3d6000fd5b5060016003600088815260200190815260200160002060006101000a81548160ff0219169083151502179055506000848154811061091457fe5b9060005260206000209060050201600201546000858154811061093357fe5b906000526020600020906005020160010181905550806001848154811061095657fe5b906000526020600020906003020160010154039150816001848154811061097957fe5b906000526020600020906003020160010181905550506109f6565b600182815481106109a157fe5b906000526020600020906003020160010154600084815481106109c057fe5b90600052602060002090600502016001015401600084815481106109e057fe5b9060005260206000209060050201600101819055505b505b8273ffffffffffffffffffffffffffffffffffffffff163373ffffffffffffffffffffffffffffffffffffffff161415610a9e576001808281548110610a3a57fe5b906000526020600020906003020160020160146101000a81548160ff021916908315150217905550600060018281548110610a7157fe5b906000526020600020906003020160020160156101000a81548160ff021916908315150217905550610b0c565b6040517f08c379a00000000000000000000000000000000000000000000000000000000081526004018080602001828103825260188152602001807f596f752068617665206e6f7420636f6e7472696275746564000000000000000081525060200191505060405180910390fd5b8080600101915050610620565b505b80806001019150506105e7565b505050565b600115156002600084815260200190815260200160002060009054906101000a900460ff16151514610bc7576040517f08c379a00000000000000000000000000000000000000000000000000000000081526004018080602001828103825260178152602001807f596f757220676f616c20494420697320696e76616c696400000000000000000081525060200191505060405180910390fd5b3373ffffffffffffffffffffffffffffffffffffffff166004600084815260200190815260200160002060009054906101000a900473ffffffffffffffffffffffffffffffffffffffff1673ffffffffffffffffffffffffffffffffffffffff1614610c7e576040517f08c379a000000000000000000000000000000000000000000000000000000000815260040180806020018281038252602281526020018061252b6022913960400191505060405180910390fd5b60008090505b600080549050811015610fcf5760008181548110610c9e57fe5b906000526020600020906005020160000154831415610fc25760008181548110610cc457fe5b906000526020600020906005020160040160009054906101000a900473ffffffffffffffffffffffffffffffffffffffff1673ffffffffffffffffffffffffffffffffffffffff168273ffffffffffffffffffffffffffffffffffffffff161415610d7a576040517f08c379a000000000000000000000000000000000000000000000000000000000815260040180806020018281038252602a8152602001806124d3602a913960400191505060405180910390fd5b8160008281548110610d8857fe5b906000526020600020906005020160040160006101000a81548173ffffffffffffffffffffffffffffffffffffffff021916908373ffffffffffffffffffffffffffffffffffffffff1602179055507f274573c96deaa4110c90abf89da696f14276dd7e1187796f6565ec271e5396be82604051808273ffffffffffffffffffffffffffffffffffffffff1673ffffffffffffffffffffffffffffffffffffffff16815260200191505060405180910390a160008090505b600180549050811015610fc05760018181548110610e5a57fe5b906000526020600020906003020160000154841415610fb357600060018281548110610e8257fe5b906000526020600020906003020160020160146101000a81548160ff0219169083151502179055506001808281548110610eb857fe5b906000526020600020906003020160020160156101000a81548160ff02191690831515021790555060018181548110610eed57fe5b90600052602060002090600302016001015460008381548110610f0c57fe5b9060005260206000209060050201600101540360008381548110610f2c57fe5b90600052602060002090600502016001018190555060008281548110610f4e57fe5b90600052602060002090600502016002015460008381548110610f6d57fe5b9060005260206000209060050201600101541015610fb25760006003600086815260200190815260200160002060006101000a81548160ff0219169083151502179055505b5b8080600101915050610e40565b505b8080600101915050610c84565b505050565b60008080549050905090565b600115156002600083815260200190815260200160002060009054906101000a900460ff1615151461107a576040517f08c379a00000000000000000000000000000000000000000000000000000000081526004018080602001828103825260178152602001807f596f757220676f616c20494420697320696e76616c696400000000000000000081525060200191505060405180910390fd5b3373ffffffffffffffffffffffffffffffffffffffff166004600083815260200190815260200160002060009054906101000a900473ffffffffffffffffffffffffffffffffffffffff1673ffffffffffffffffffffffffffffffffffffffff16141561114f576040517f08c379a000000000000000000000000000000000000000000000000000000000815260040180806020018281038252601f8152602001807f596f752063616e6e6f7420627265616b20796f757220706967677962616e6b0081525060200191505060405180910390fd5b600080905060008090505b600180549050811015611521576001818154811061117457fe5b906000526020600020906003020160000154831480156111fd57506001818154811061119c57fe5b906000526020600020906003020160020160009054906101000a900473ffffffffffffffffffffffffffffffffffffffff1673ffffffffffffffffffffffffffffffffffffffff163373ffffffffffffffffffffffffffffffffffffffff16145b1561151457600115156001828154811061121357fe5b906000526020600020906003020160020160159054906101000a900460ff161515141561135b576001818154811061124757fe5b906000526020600020906003020160010154915060006001828154811061126a57fe5b906000526020600020906003020160010181905550600082116112d8576040517f08c379a00000000000000000000000000000000000000000000000000000000081526004018080602001828103825260258152602001806125876025913960400191505060405180910390fd5b3373ffffffffffffffffffffffffffffffffffffffff166108fc839081150290604051600060405180830381858888f1935050505015801561131e573d6000803e3d6000fd5b507fcca918a0ccfdab196d5b99f443747bf97ad0693435ca7670e40aef85f34d9720826040518082815260200191505060405180910390a1611513565b600115156003600085815260200190815260200160002060009054906101000a900460ff16151514156113f6576040517f08c379a000000000000000000000000000000000000000000000000000000000815260040180806020018281038252601d8152602001807f54686520676f616c2068617320616c7265616479206265656e206d657400000081525060200191505060405180910390fd5b6001818154811061140357fe5b906000526020600020906003020160010154915060006001828154811061142657fe5b90600052602060002090600302016001018190555060008211611494576040517f08c379a00000000000000000000000000000000000000000000000000000000081526004018080602001828103825260258152602001806125876025913960400191505060405180910390fd5b3373ffffffffffffffffffffffffffffffffffffffff166108fc839081150290604051600060405180830381858888f193505050501580156114da573d6000803e3d6000fd5b507fcca918a0ccfdab196d5b99f443747bf97ad0693435ca7670e40aef85f34d9720826040518082815260200191505060405180910390a15b5b808060010191505061115a565b505050565b6001818154811061153357fe5b90600052602060002090600302016000915090508060000154908060010154908060020160009054906101000a900473ffffffffffffffffffffffffffffffffffffffff16908060020160149054906101000a900460ff16908060020160159054906101000a900460ff16905085565b60036020528060005260406000206000915054906101000a900460ff1681565b600081815481106115d057fe5b90600052602060002090600502016000915090508060000154908060010154908060020154908060030160009054906101000a900473ffffffffffffffffffffffffffffffffffffffff16908060040160009054906101000a900473ffffffffffffffffffffffffffffffffffffffff16905085565b6000611650612405565b905060006040518060a00160405280838152602001600081526020018581526020013373ffffffffffffffffffffffffffffffffffffffff1681526020018473ffffffffffffffffffffffffffffffffffffffff168152509080600181540180825580915050906001820390600052602060002090600502016000909192909190915060008201518160000155602082015181600101556040820151816002015560608201518160030160006101000a81548173ffffffffffffffffffffffffffffffffffffffff021916908373ffffffffffffffffffffffffffffffffffffffff16021790555060808201518160040160006101000a81548173ffffffffffffffffffffffffffffffffffffffff021916908373ffffffffffffffffffffffffffffffffffffffff16021790555050505060016002600083815260200190815260200160002060006101000a81548160ff021916908315150217905550336004600083815260200190815260200160002060006101000a81548173ffffffffffffffffffffffffffffffffffffffff021916908373ffffffffffffffffffffffffffffffffffffffff1602179055507f389c6baa186f43131b299a6a742f4f8b0096de8d2fc8dd3b9a61cee6a234c209816040518082815260200191505060405180910390a1505050565b6000600180549050905090565b600034116118bf576040517f08c379a00000000000000000000000000000000000000000000000000000000081526004018080602001828103825260208152602001807f596f75206d75737420616464206d6f6e657920746f20636f6e7472696275746581525060200191505060405180910390fd5b600115156002600083815260200190815260200160002060009054906101000a900460ff16151514611959576040517f08c379a00000000000000000000000000000000000000000000000000000000081526004018080602001828103825260178152602001807f596f757220676f616c20494420697320696e76616c696400000000000000000081525060200191505060405180910390fd5b600115156003600083815260200190815260200160002060009054906101000a900460ff16151514156119f4576040517f08c379a000000000000000000000000000000000000000000000000000000000815260040180806020018281038252601d8152602001807f54686520676f616c2068617320616c7265616479206265656e206d657400000081525060200191505060405180910390fd5b6000809050600080905060008090505b600080549050811015611bf25760008181548110611a1e57fe5b906000526020600020906005020160000154841415611be55760008181548110611a4457fe5b9060005260206000209060050201600201543460008381548110611a6457fe5b9060005260206000209060050201600101540110611b7f576000808281548110611a8a57fe5b9060005260206000209060050201600201543460008481548110611aaa57fe5b906000526020600020906005020160010154010390503373ffffffffffffffffffffffffffffffffffffffff166108fc829081150290604051600060405180830381858888f19350505050158015611b06573d6000803e3d6000fd5b5060016003600087815260200190815260200160002060006101000a81548160ff02191690831515021790555060008281548110611b4057fe5b90600052602060002090600502016002015460008381548110611b5f57fe5b906000526020600020906005020160010181905550803403925050611be4565b3460008281548110611b8d57fe5b9060005260206000209060050201600101540160008281548110611bad57fe5b90600052602060002090600502016001018190555060008181548110611bcf57fe5b90600052602060002090600502016001015491505b5b8080600101915050611a04565b5060006001805490501415611d145760016040518060a001604052808581526020018381526020013373ffffffffffffffffffffffffffffffffffffffff1681526020016001151581526020016000151581525090806001815401808255809150509060018203906000526020600020906003020160009091929091909150600082015181600001556020820151816001015560408201518160020160006101000a81548173ffffffffffffffffffffffffffffffffffffffff021916908373ffffffffffffffffffffffffffffffffffffffff16021790555060608201518160020160146101000a81548160ff02191690831515021790555060808201518160020160156101000a81548160ff021916908315150217905550505050611fbd565b60008090505b600180549050811015611e9f5760018181548110611d3457fe5b90600052602060002090600302016000015484148015611dbd575060018181548110611d5c57fe5b906000526020600020906003020160020160009054906101000a900473ffffffffffffffffffffffffffffffffffffffff1673ffffffffffffffffffffffffffffffffffffffff163373ffffffffffffffffffffffffffffffffffffffff16145b15611e92576001151560018281548110611dd357fe5b906000526020600020906003020160020160149054906101000a900460ff16151514611e4a576040517f08c379a000000000000000000000000000000000000000000000000000000000815260040180806020018281038252603a81526020018061254d603a913960400191505060405180910390fd5b60018181548110611e5757fe5b906000526020600020906003020160010154820160018281548110611e7857fe5b906000526020600020906003020160010181905550600192505b8080600101915050611d1a565b50600015158215151415611fbc5760016040518060a001604052808581526020018381526020013373ffffffffffffffffffffffffffffffffffffffff1681526020016001151581526020016000151581525090806001815401808255809150509060018203906000526020600020906003020160009091929091909150600082015181600001556020820151816001015560408201518160020160006101000a81548173ffffffffffffffffffffffffffffffffffffffff021916908373ffffffffffffffffffffffffffffffffffffffff16021790555060608201518160020160146101000a81548160ff02191690831515021790555060808201518160020160156101000a81548160ff0219169083151502179055505050505b5b7f687e6ec7e8429c6f1b032971ca748b644de6f781c2aa80b2ca22d4618a48372d346040518082815260200191505060405180910390a1505050565b600115156002600083815260200190815260200160002060009054906101000a900460ff16151514612093576040517f08c379a00000000000000000000000000000000000000000000000000000000081526004018080602001828103825260178152602001807f596f757220676f616c20494420697320696e76616c696400000000000000000081525060200191505060405180910390fd5b3373ffffffffffffffffffffffffffffffffffffffff166004600083815260200190815260200160002060009054906101000a900473ffffffffffffffffffffffffffffffffffffffff1673ffffffffffffffffffffffffffffffffffffffff161461214a576040517f08c379a000000000000000000000000000000000000000000000000000000000815260040180806020018281038252602281526020018061252b6022913960400191505060405180910390fd5b600115156003600083815260200190815260200160002060009054906101000a900460ff161515146121e4576040517f08c379a00000000000000000000000000000000000000000000000000000000081526004018080602001828103825260108152602001807f476f616c206d757374206265206d65740000000000000000000000000000000081525060200191505060405180910390fd5b60008090505b6000805490508110156123ce576000818154811061220457fe5b9060005260206000209060050201600001548214156123c157600080828154811061222b57fe5b906000526020600020906005020160010154111561235257600080828154811061225157fe5b9060005260206000209060050201600101549050600080838154811061227357fe5b9060005260206000209060050201600101819055506000828154811061229557fe5b906000526020600020906005020160040160009054906101000a900473ffffffffffffffffffffffffffffffffffffffff1673ffffffffffffffffffffffffffffffffffffffff166108fc829081150290604051600060405180830381858888f1935050505015801561230c573d6000803e3d6000fd5b507fd4aa13ad7d4c064c5f95f9d133f115e708d9f7f227918c87156cf106e82349fb8382604051808381526020018281526020019250505060405180910390a1506123c0565b6040517f08c379a000000000000000000000000000000000000000000000000000000000815260040180806020018281038252601c8152602001807f596f7520646f206e6f74206861766520656e6f756768206d6f6e65790000000081525060200191505060405180910390fd5b5b80806001019150506121ea565b5050565b60046020528060005260406000206000915054906101000a900473ffffffffffffffffffffffffffffffffffffffff1681565b6000808080600101915050600062989680334284604051602001808473ffffffffffffffffffffffffffffffffffffffff1673ffffffffffffffffffffffffffffffffffffffff1660601b815260140183815260200182815260200193505050506040516020818303038152906040528051906020012060001c8161248657fe5b06905080925050509056fe54686520676f616c2068617320616c7265616479206265656e206d65742c20706c6561736520776974686472617720796f757220636f6e747269627574696f6e73506c6561736520696e7075742061206e6f76656c206164647265737320666f72207468697320676f616c596f7520646f206e6f74206861766520616e7920636f6e747269627574696f6e7320746f207468697320676f616c596f7520617265206e6f7420746865206f776e6572206f6620746869732062616e6b706c6561736520616772656520746f2061646472657373206368616e6765206265666f726520796f7520636f6e7472696275746520616761696e596f752068617665206e6f7420636f6e747269627574656420746f207468697320476f616c596f75206861766520616c72656164792061677265656420746f207468652061646472657373206368616e6765a265627a7a723158207471732f2010f374eb0793201611768addcc2c5eda437a1e2e574e39cf193c5d64736f6c63430005100032",
  "source": "pragma solidity >=0.4.22 <0.6.0;\r\n\r\ncontract smartPiggyBank{\r\n\r\n    struct piggyBankID {\r\n        uint goalID;\r\n        uint currentBalance;\r\n        uint goal;\r\n        address payable goalOwner;\r\n        address payable goalDestination;\r\n    }\r\n\r\n    struct contributor {\r\n        uint goalId;\r\n        uint contributionTowardsGoal;\r\n        address contributorAddress;\r\n        bool agreesToAddress;\r\n        bool etherNotUsedAddressChange;\r\n    }\r\n\r\n    piggyBankID[] public Ids;\r\n    contributor[] public contributors;\r\n\r\n    mapping (uint => bool) idExist;\r\n    mapping (uint => bool) public goalMet;\r\n    mapping (uint => address) public goalOwner;\r\n\r\n    event bankCreated(uint id);\r\n    event contributionMade(uint contribution);\r\n    event moneyWithdrawn(uint withdrawnMoney);\r\n    event moneySpent(uint id, uint moneyspent);\r\n    event addresschanged(address payable newAddress);\r\n\r\n    function getIds() public view returns(uint) {\r\n     return Ids.length;\r\n    }\r\n\r\n    function getcontributors() public view returns(uint) {\r\n     return contributors.length;\r\n    }\r\n\r\n\r\n    //function creates a piggybank with a goal and payable address\r\n    function createbank(uint _goal, address payable _goalAddress) public {\r\n        //create a random ID for the piggybank\r\n        uint _piggyBankID = rand();\r\n\r\n        //create the ID for piggyBank  and push it in an array of IDs of structs\r\n        Ids.push(piggyBankID(_piggyBankID, 0, _goal, msg.sender,_goalAddress));\r\n\r\n        //add to goal ID mapping\r\n        idExist[_piggyBankID] = true;\r\n\r\n        //goal goalOwner\r\n        goalOwner[_piggyBankID] = msg.sender;\r\n\r\n        emit bankCreated(_piggyBankID);\r\n\r\n    }\r\n\r\n    //contribute to piggyBank\r\n    function contribute(uint _goalID) public payable {\r\n        //must contrubute an amount of money\r\n        require(msg.value > 0, \"You must add money to contribute\");\r\n\r\n        //ID must exist, cycle through array\r\n        require(idExist[_goalID] == true,  \"Your goal ID is invalid\");\r\n\r\n        //require that the goal has not already been goalMet\r\n        require(goalMet[_goalID] != true, \"The goal has already been met\");\r\n\r\n        //modify a number if the test goes through\r\n        bool contributorAlreadyExist = false;\r\n        uint totalSent = 0;\r\n\r\n\r\n       //when the goal is reached - take the difference and send it back to the sender\r\n       //and make the goal mapping true;\r\n        for(uint i = 0; i < Ids.length; i++) {\r\n            if(_goalID == Ids[i].goalID) {\r\n\r\n                if (Ids[i].currentBalance + msg.value >= Ids[i].goal) {\r\n                    uint overAmount = (Ids[i].currentBalance + msg.value) - Ids[i].goal;\r\n                    msg.sender.transfer(overAmount);\r\n                    goalMet[_goalID] = true;\r\n                    Ids[i].currentBalance = Ids[i].goal;\r\n                    totalSent = msg.value - overAmount;\r\n                }else {\r\n\r\n                    Ids[i].currentBalance = Ids[i].currentBalance + msg.value;\r\n                    totalSent = Ids[i].currentBalance;\r\n                }\r\n\r\n            }\r\n        }\r\n\r\n\r\n\r\n\r\n\r\n        if(contributors.length == 0) {\r\n            contributors.push(contributor(_goalID, totalSent, msg.sender, true, false));\r\n        } else {\r\n\r\n\r\n            //if a person has already contributed, update their current balance, and let the system know by modifying varible\r\n            for(uint i = 0; i < contributors.length; i++) {\r\n                if(_goalID == contributors[i].goalId && msg.sender == contributors[i].contributorAddress ) {\r\n                    //reqyure a person aggree to address change first\r\n                    require(contributors[i].agreesToAddress == true, \"please agree to address change before you contribute again\");\r\n\r\n                    //when true - add msg.value to currentBalance\r\n                    contributors[i].contributionTowardsGoal = totalSent + contributors[i].contributionTowardsGoal;\r\n                    contributorAlreadyExist = true;\r\n                }\r\n            }\r\n\r\n\r\n\r\n            //if test is true, then add a new contributor to the array\r\n            if (contributorAlreadyExist == false) {\r\n                //create an array of contrinutors for this goalId\r\n                contributors.push(contributor(_goalID, totalSent, msg.sender, true, false));\r\n            }\r\n\r\n        }\r\n\r\n        emit contributionMade(msg.value);\r\n\r\n    }\r\n\r\n\r\n\r\n    //allow people to withdraw their funds\r\n    function withdraw(uint _goalID) public {\r\n        //ID must exist, cycle through array\r\n        require(idExist[_goalID] == true,  \"Your goal ID is invalid\");\r\n\r\n        //goal owners cannot take money out\r\n        require(goalOwner[_goalID] != msg.sender, \"You cannot break your piggybank\");\r\n\r\n\r\n        uint contributionAmount = 0;\r\n\r\n        //look for their contribution\r\n        for(uint i = 0; i < contributors.length; i++) {\r\n            if(_goalID == contributors[i].goalId && msg.sender == contributors[i].contributorAddress ) {\r\n\r\n                //need the ether not used due to address change to be true to withdraw\r\n                if(contributors[i].etherNotUsedAddressChange == true) {\r\n                    contributionAmount = contributors[i].contributionTowardsGoal;\r\n                    contributors[i].contributionTowardsGoal = 0;\r\n\r\n                    require(contributionAmount > 0, \"You have not contributed to this Goal\");\r\n\r\n                    msg.sender.transfer(contributionAmount);\r\n                    emit moneyWithdrawn(contributionAmount);\r\n\r\n                }else {\r\n                        //goal cannot be reached\r\n                        require(goalMet[_goalID] != true , \"The goal has already been met\");\r\n                        contributionAmount = contributors[i].contributionTowardsGoal;\r\n                        contributors[i].contributionTowardsGoal = 0;\r\n                        require(contributionAmount > 0, \"You have not contributed to this Goal\");\r\n                        msg.sender.transfer(contributionAmount);\r\n                        emit moneyWithdrawn(contributionAmount);\r\n                }\r\n\r\n\r\n\r\n\r\n            }\r\n\r\n\r\n        }\r\n\r\n    }\r\n\r\n    //goal has been met / owner can use funds\r\n    function usePiggyBank(uint _goalID) public {\r\n\r\n        require(idExist[_goalID] == true,  \"Your goal ID is invalid\");\r\n        //only owner can use funds\r\n        require(goalOwner[_goalID] == msg.sender, \"You are not the owner of this bank\");\r\n        //must have met goal\r\n        require(goalMet[_goalID] == true, \"Goal must be met\");\r\n\r\n\r\n        //make sure they have enough money\r\n        //then transfer it to the correct address\r\n        for(uint i = 0; i < Ids.length; i++) {\r\n            if(_goalID == Ids[i].goalID) {\r\n\r\n                if (Ids[i].currentBalance > 0) {\r\n                    uint _balance = Ids[i].currentBalance;\r\n                    Ids[i].currentBalance = 0;\r\n                    Ids[i].goalDestination.transfer(_balance);\r\n                    emit moneySpent(_goalID, _balance);\r\n                }else {\r\n\r\n                    revert(\"You do not have enough money\");\r\n                }\r\n\r\n            }\r\n        }\r\n\r\n    }\r\n\r\n    //change address\r\n    function changeAddress(uint _goalID, address payable _address) public {\r\n\r\n        //must be a valid goal and must be goal owner\r\n        require(idExist[_goalID] == true,  \"Your goal ID is invalid\");\r\n        require(goalOwner[_goalID] == msg.sender, \"You are not the owner of this bank\");\r\n\r\n        //find address and change it\r\n        for(uint i = 0; i < Ids.length; i++) {\r\n            if(_goalID == Ids[i].goalID) {\r\n                //require that the address isnt the same to stop mistakes\r\n                require(_address != Ids[i].goalDestination, \"Please input a novel address for this goal\");\r\n\r\n                //set the new address in struct\r\n                Ids[i].goalDestination = _address;\r\n\r\n                emit addresschanged(_address);\r\n\r\n\r\n                //everyone that is a contributor must say this is okay unless it is the goal owner\r\n                for(uint x = 0; x < contributors.length; x++) {\r\n                    if(_goalID == contributors[x].goalId) {\r\n\r\n                        //set okay to give to false\r\n                        contributors[x].agreesToAddress = false;\r\n                        //set either not used to true\r\n                        contributors[x].etherNotUsedAddressChange = true;\r\n                        //take the contributors money out of Ids\r\n                        Ids[i].currentBalance = Ids[i].currentBalance - contributors[x].contributionTowardsGoal;\r\n\r\n                        if(Ids[i].currentBalance < Ids[i].goal) {\r\n                            goalMet[_goalID] = false;\r\n                        }\r\n                    }\r\n                }\r\n\r\n            }\r\n        }\r\n\r\n    }\r\n\r\n\r\n    //allow for someone to recontibute their funds after address change\r\n    function contributorAgreesToAddressChange(uint _goalID) public {\r\n        //the item must exist\r\n        require(idExist[_goalID] == true,  \"Your goal ID is invalid\");\r\n        //require that the goal has not already been goalMet\r\n        require(goalMet[_goalID] != true, \"The goal has already been met, please withdraw your contributions\");\r\n        //must be a contributer\r\n        address payable contributerAddress;\r\n\r\n        for(uint i = 0; i < Ids.length; i++) {\r\n            if(_goalID == Ids[i].goalID) {\r\n\r\n               //go into each contributor\r\n                for( uint x = 0; x < contributors.length; x++) {\r\n                    if(_goalID == contributors[x].goalId && contributors[x].contributorAddress == msg.sender) {\r\n                        //require the contribtor has money\r\n                        require(contributors[x].contributionTowardsGoal > 0, \"You do not have any contributions to this goal\");\r\n                        //aggress to address must be false\r\n                        require(contributors[x].agreesToAddress == false, \"You have already agreed to the address change\");\r\n                        //set contrubuteraddress to stop non contributers\r\n                        contributerAddress = msg.sender;\r\n                        uint totalSent = 0;\r\n\r\n\r\n                        //create an if statement to reset contributors amount of money\r\n                        if (Ids[i].currentBalance + contributors[x].contributionTowardsGoal >= Ids[i].goal) {\r\n                            uint overAmount = (Ids[i].currentBalance + contributors[x].contributionTowardsGoal) - Ids[i].goal;\r\n                            msg.sender.transfer(overAmount);\r\n                            goalMet[_goalID] = true;\r\n                            Ids[i].currentBalance = Ids[i].goal;\r\n                            totalSent = contributors[x].contributionTowardsGoal - overAmount;\r\n                            contributors[x].contributionTowardsGoal = totalSent;\r\n                        }else {\r\n\r\n                            Ids[i].currentBalance = Ids[i].currentBalance + contributors[x].contributionTowardsGoal;\r\n                        }\r\n\r\n\r\n\r\n                    }\r\n\r\n                    if(msg.sender == contributerAddress) {\r\n                        //set okay to give to true\r\n                        contributors[x].agreesToAddress = true;\r\n                        contributors[x].etherNotUsedAddressChange = false;\r\n                    }else {\r\n                        revert('You have not contributed');\r\n                    }\r\n\r\n                }\r\n            }\r\n        }\r\n\r\n\r\n    }\r\n\r\n\r\n\r\n\r\n\r\n    //cancel goal once it was met / allow people to withdraw\r\n\r\n\r\n\r\n    //random number function to create Id (helper function)\r\n    function rand() internal view returns(uint) {\r\n        uint nonce;\r\n        nonce ++;\r\n        uint randNum = uint(keccak256(abi.encodePacked(msg.sender, now, nonce))) % 10000000;\r\n        return randNum;\r\n    }\r\n\r\n}\r\n",
  "sourcePath": "C:\\Users\\cdancy\\Documents\\portfolio\\SmartPiggyBank\\contracts\\smartPiggyBank.sol",
  "compiler": {
    "name": "solc",
    "version": "0.5.16+commit.9c3226ce.Emscripten.clang"
  },
  "schemaVersion": "3.1.0",
  "updatedAt": "2020-07-09T21:19:35.816Z",
  "networkType": "ethereum",
  "devdoc": {
    "methods": {}
  },
  "userdoc": {
    "methods": {}
  }
}